:020000041000EA
:1000000000B5324B212058609868022188439860DF
:10001000D860186158612E4B002199600221596106
:100020000121F02299502B49196001219960352056
:1000300000F044F80222904214D00621196600F024
:1000400034F8196E01211966002018661A6600F04E
:100050002CF8196E196E196E052000F02FF8012189
:100060000842F9D1002199601B49196000215960AB
:100070001A491B48016001219960EB211966A021F2
:10008000196600F012F800219960164914480160C1
:100090000121996001BC002800D000471248134993
:1000A000086003C880F30888084703B5996A0420EC
:1000B0000142FBD001200142F8D103BD02B5186610
:1000C0001866FFF7F2FF186E186E02BD00000240BE
:1000D000000000180000070000035F00212200005C
:1000E000F4000018222000A00001001008ED00E03C
:1000F00000000000000000000000000074B24E7A12
:1001000000200420F7010010CB010010CD010010E9
:10011000C9010010C9010010C9010010C901001077
:10012000C9010010C9010010C9010010CF01001061
:10013000C9010010C9010010D1010010D301001045
:10014000C1010010C1010010C1010010C101001067
:10015000C1010010C1010010C1010010C101001057
:10016000C1010010C1010010C1010010C101001047
:10017000C1010010C1010010C1010010C101001037
:10018000C1010010C1010010C1010010C101001027
:10019000C1010010C1010010C1010010C101001017
:1001A000C1010010C1010010C1010010C101001007
:1001B000C1010010C1010010C1010010C1010010F7
:1001C000EFF30580103800BE00BE00BE00BE00BECA
:1001D00000BE00BEF2EB8871E09400101095001094
:1001E0003802001090A31AE71E481F49086006C88D
:1001F00081F3088810471D480068002801D019487D
:10020000F3E70DA40ECC002902D000F012F8F9E7B4
:100210001749184A002000E001C19142FCD116495B
:100220008847164988471649884700BEFDE701C937
:1002300001C29A42FBD3704710950010C000002005
:1002400090060020E09A0010000004200000042026
:10025000E09A0010001004200010042000000000AC
:10026000704700000000000008ED00E0000000D032
:100270009006002090130020154C0010AD0A0010CD
:100280000D4C0010F8B5C04606480749091A8B10F6
:10029000C90FC91810B5491003D0044B002B00D06A
:1002A000984710BD90060020900600200000000036
:1002B000054B10B5002B03D00449054800E000BFF2
:1002C000FFF7E2FF10BDC046000000004013002011
:1002D000DC8D0010F0B583B06B46D0269C1D8027C6
:1002E00020236A463606BF0218430D00B76121007D
:1002F000207001230732074808F036FD6A460123C3
:10030000210025700732034808F02EFD776103B005
:10031000F0BDC04600C0034070B582B06B460C0013
:10032000D025991D802620236A462D06B602184343
:10033000AE61012308700732054808F015FD05225B
:100340002100034808F008FD6E6102B070BDC04690
:1003500000C00340F0B5DE464E4657464546DC49F0
:10036000E0B50A8891B0130A99460423CD5E2B129A
:100370009B4606200B5E1C1202940824085F0A2686
:100380008C5F0712A24624120394CC7809948978D2
:100390000891D1B2090912010A4351B28C46644650
:1003A00033219208A4008C430A40224354B204949F
:1003B0004C462401A4464C462409A14664464E46B8
:1003C000344366B2B446A608340066460C40B60014
:1003D000A14634008C43A4464C466646344366B27C
:1003E0000596EEB236092D0135436EB2B600A14630
:1003F0003400AD088C430D4025436EB206965E4630
:10040000F6B23609B0465E4644463601264374B21B
:10041000A400B6080E408C433443DEB236091B01FB
:1004200033435EB2B6009B088E430B4033430193C7
:1004300004266B46A4469E57029C0796E6B23609F0
:100440002401344366B2B600A4088E430C40344302
:10045000C6B236090001304346B2B60080088E436A
:100460000840304346B2B046FEB236093F0137433A
:100470007EB263B2BF08B60002938E434B460F4074
:10048000374355265B08334052081B0232401A435B
:100490006D08904B35402D041A402A4365466D087F
:1004A0009B463540049B12022D06120A2A435D002A
:1004B000EDB2A946059B64085D004B46EDB22D02E6
:1004C0002B439946069B34405D004B46EDB22D040C
:1004D0001D4363462D025B062D0A1D437E4B2402FD
:1004E0001D402A430C925A469946019B40085B08DE
:1004F0003340234330400004134003437A08079DF0
:1005000032401B0212061B0A13436A00029DD2B23C
:1005100068004546C0B20002024368004D46C0B2C2
:1005200000040243780617023F0A07432F4055464E
:100530003B430D9353462A010CADA846DBB21B0981
:1005400013435AB292009B088A430B4013435AB29A
:1005500052005B08B243334013432B72039D08984B
:100560002A01EBB245461B0913435AB292009B087D
:100570008A430B4013435AB252005B08B2433340E4
:1005800013436B720201030913435AB292009B0892
:100590008A430B4013435AB252005B08B2433340C4
:1005A0001343099AAB721309120113435AB2920012
:1005B0009B088A430B4013435AB252005B08B24374
:1005C00033401343EB7200238027AB81D0250AAA66
:1005D0002D06BF02D41DE1330AA9AF610631937124
:1005E0003E480123220008F0BFFB27230AAA0AA9DC
:1005F0006F610631AF61394893712200263B08F0E4
:10060000B3FB70230AAA0AA99371063122006F3B3B
:10061000324808F0A9FBA02380260AAA0AA96F6124
:100620000631AF612D4893719F3B220008F09CFB7F
:1006300076020E224146294808F08EFB6F610F209A
:100640006E61002101F010FCAE61C82606E00A20B0
:100650000021013E01F008FC002E18D007230AAA51
:100660000AA9AF61063193711C482200063B08F0CD
:100670007BFBFF230AAA0AA993711848FE3B2200BC
:10068000063108F071FB23786F619B06DFD5D0251A
:10069000802627232D06B6020AAA0AA9AE610631D2
:1006A00093710E482200263B08F05EFB20230AAA25
:1006B0000AA99371063122001F3B084808F054FB39
:1006C0006E6111B0F0BCBB46B246A946A046F0BD73
:1006D00020130020FFFF00FFAAAAAAAA00C003401F
:1006E00001230370004870477C94001070B50D0022
:1006F0000400160082B0284804F01AFC274804F0D1
:1007000017FC2A002100264804F096FC3378013BB0
:10071000DBB2032B33D8234A9B009958224804F0BC
:100720008BFC224804F004FC0122214B1A70214B5F
:1007300080221C70204B92041D70D0231B065A612E
:100740003378022B24D0012B1BD001230022290057
:10075000200008F069F9012301222900200008F097
:1007600063F901230022009329000023200008F0F0
:10077000E7F92900200007F0CFF902B070BD0F495A
:10078000CCE7290020000E4A063307F0F9F9E8E724
:10079000B37B002BD9D1ECE7E88D0010148E00104C
:1007A000348E0010C4910010508E00105C8E00102A
:1007B000861300208713002088130020E08D00108E
:1007C000D491001010B5084804F0B2FB0023074A8A
:1007D0001370074A1370074A1370D02380221B0638
:1007E00092045A6110BDC046888E00108613002006
:1007F0008713002088130020F0B5CE464746982383
:1008000080B5D35C05000E00140085B0002B06D126
:100810001378022B00D175E0E37B002B08D1310067
:10082000280007F079F905B0C0BCB946B046F0BD64
:1008300001F010FB00296AD0FA220023920001F097
:100840000DFF07008548638802889A4269D0A31C7F
:100850009846834B99460C22414602F055FDFFF71E
:1008600079FD4B467F4A1F601368FB1AC82BD6D907
:1008700061887D48176004F0DFFB6388DA0400D5E7
:10088000A1E09A0400D5DEE05A0400D5D6E01AB201
:10089000002A00DADCE0DA0500D5CAE09A0500D5C6
:1008A000C2E0DA0600D5BAE09A0600D5B2E05A05F1
:1008B00000D5AAE0DA0700D5A2E09A0700D59AE0B1
:1008C0005A0700D592E01A0700D58AE05A0600D5EB
:1008D00082E01B067CD44346444604229B5E41468C
:1008E00042460A27E45FD278897802944446082772
:1008F000E45F5E48019444460627E45F009404F0F8
:100900009BFB8CE7937B002B00D085E787E7FA21E0
:10091000890001F065FE07005048638802889A420A
:1009200095D10422835EA21C90460621625E9B1A2A
:10093000DA179B18534080225200934240DC062174
:10094000435E41469C460623C95E63465B1AD9173F
:100950005B184B40934233DC0821435E41469C4682
:100960000823C95E63465B1AD9175B184B40934254
:1009700026DC0A21435E41469C460A23C95E634643
:100980005B1AD9175B184B40934219DC42468378B7
:1009900092789B1ADA179B185340082B10DC4246BA
:1009A000C378D2789B1ADA179B185340082B07DCC0
:1009B0002B4B99461B68FB1A0F2B00D82FE74AE7F1
:1009C000274B994647E72A4804F036FB638858E7E7
:1009D000284804F031FB7EE7274804F02DFB6388AC
:1009E00077E7264804F028FB63886FE7244804F083
:1009F00023FB638867E7234804F01EFB63885FE7F7
:100A0000214804F019FB638857E7204804F014FBE1
:100A100063884FE71E4804F00FFB638847E71D48D3
:100A200004F00AFB63883FE71B4804F005FB63887A
:100A300037E71A4804F000FB63882FE7184804F0F2
:100A4000FBFA638823E7174804F0F6FA63881BE78C
:100A5000154804F0F1FA63881DE7C0462013002012
:100A6000381300202C1300209C8E0010E48E001000
:100A7000A88E0010E08E0010DC8E0010D88E0010C2
:100A8000D48E0010D08E0010CC8E0010C88E0010B6
:100A9000C48E0010C08E0010BC8E0010B88E0010E6
:100AA000B08E0010AC8E0010B48E0010F0B5DE4693
:100AB0004E4645465746D024E0B58026032599B0DA
:100AC0002406B60406F010FF04F0E2F9192000F045
:100AD00071FA666266616420A66101F0A5F8013DC5
:100AE0006420666101F0A0F8002DF4D1B84804F04C
:100AF0001FFAB84804F01CFA022314AF3B803900F7
:100B0000002005F04BFFB44804F012FAB349B44892
:100B100004F0B2FB0121022000F032FA012103208F
:100B200000F02EFA0121042000F02AFA102000F033
:100B300041FA802380265B026362B602A361112022
:100B400000F038FA0F206662666101F06DF800214E
:100B50000120FFF7BFFB03210320FFF7BBFB0021B0
:100B60000420FFF7B7FB02210520FFF7B3FB0E219E
:100B70000620FFF7AFFB9B4B12AD1A6829001292BB
:100B80001B7910202B71FFF7C7FB29000A20FFF704
:100B9000C3FB954B39001A680B2014921B793B71EB
:100BA000FFF7BAFB03210220FFF794FB0E2111206F
:100BB000FFF790FB0E211220FFF78CFB3E21002057
:100BC000FFF788FB022001F02FF8E1230EAA0EA9FF
:100BD0008C46A6610E2193730F2261446244E03B70
:100BE0007F4808F0C1F8E2230EAA0EA98C46666180
:100BF0000E21A66193730F2261446244E13B784861
:100C000008F0B2F8702107206661FFF763FB7748B0
:100C100004F08EF9764B0EAA0493764B9446079314
:100C2000754B0C93754B9B46262363449846744B37
:100C30000593744B0693744B0893744B0A93744B4F
:100C40000B93744B0D93744B0993744B0E93744B2D
:100C50000F9301200021404206F02CF901F0FAF830
:100C6000002950D0FA220023920001F0F7FC0390F3
:100C7000049B1B78002B17D1079B039A1B68D31A80
:100C8000FA22520093420FD30C99F43A0B78FF3AB0
:100C900053400B7000D156E1D02380221B069204F2
:100CA0005A61079B039A1A605B46039A1B68D31A22
:100CB0000F2B2ED8059B1A78069B11001B78194321
:100CC000C7D0049909780029C3D00899087800286A
:100CD000BFD00999039C0968611AFA24A400A142B3
:100CE000B7D300240D990978009407F029FF059BDC
:100CF0000A9A1B781370069B0B9A1B781370099B3A
:100D0000039A1A60A5E7FA21890001F069FC0390B3
:100D1000AEE7FFF71FFB5B46039AD0261A608023DD
:100D200036069B029946B36120233A0029002B70B6
:100D30002B481F3B08F018F83F233A0029002B707E
:100D400080243E3B264808F00FF84B46FA20640208
:100D5000736100214000746101F086F84B46B46174
:100D6000B36107233A0029002B701D48063B07F0AA
:100D7000FBFFFF233A002B702900FE3B184807F0C9
:100D8000F3FF4A463B7872615B0600D59DE0D024B4
:100D90008026E2232406B6023A002900A661104804
:100DA0002B70E13B07F0E0FF202366613A00290049
:100DB000A6610B482B701F3B07F0D6FF3E233A007D
:100DC0002B70290006483D3B07F0CEFF666171E7B6
:100DD000108F0010408F0010708F001080841E0054
:100DE00000C00340F08F0010F88F0010A08F00109B
:100DF000861300201C1300208D13002038130020C0
:100E00008E1300208F130020871300208B130020E7
:100E10008C1300208813002034130020301300208E
:100E2000D08F00104B46332173613A7813091201B9
:100E300013435AB292009B088A430B401343552236
:100E400058B25C0843007878934314401C4303096C
:100E50000001034358B280009B080B4088430343C2
:100E600059B249005B08134091430B43DBB29A46E9
:100E70005246059BE4B21C70069B1A70049B1B78BB
:100E8000002B22D0089B187800281ED00A9B1B78C4
:100E9000A34203D10B9B1B78534516D00D9B220018
:100EA000197800230093534607F04AFE52460A9BE6
:100EB0001C700B9B1A70039A099B1A600E9B1B688F
:100EC000D31AFA225200934234D84B46B361172307
:100ED0003A0029002B702948163B07F045FFFF23F5
:100EE0003A002B702900FE3B244807F03DFF4A469C
:100EF0003B787261DB072CD46123B26129002B702F
:100F00003A00603B1D4807F02FFFFF233C009A4644
:100F10000EA8844652460F210EABDA731748012300
:100F20002A00614407F020FF2B7823700134A0458C
:100F3000EED177E7039A0E9B21001A600F98524674
:100F400004F07AF8C1E7D02380221B0692049A614C
:100F5000A7E62723B26129003A002B700748263BF9
:100F600007F002FF40233A002B7029003F3B034863
:100F700007F0FAFE4B46736109E7C04600C0034024
:100F8000094A83009A1810B51468402254408032F0
:100F90002240064CC000A44663441A60044B9C46A1
:100FA0006044416010BDC04604C0014004D001400F
:100FB000004001400123D0228340120693629361D6
:100FC000094A83009A1811684022514080320A4031
:100FD0000649C0008C4663441A60054B9C460523B5
:100FE000604443607047C04604C0014004D00140E3
:100FF000004001400FB400B5084883B003F098FFEB
:10100000049B002B07D005A91800019103F0E4FD13
:10101000034803F08DFF012003F0F6FD3890001027
:101020004890001070B5EFF3108C72B60D4D2B6820
:10103000002BFCD0BFF35F8F0724CB08C618C05C21
:1010400001230C40A3401C000440034207D1184375
:101050003070BFF35F8F2C608CF3108870BD100070
:10106000FFF7C8FF2C0100D0F8B54746CE468846AA
:1010700080B5EFF3108C72B61C4D2C68002CFCD0A0
:10108000BFF35F8F9A4222D807210126894602E0EA
:101090000132934218D34D4637001540AF40D40873
:1010A0000119045D2742F3D110003C430C70BFF3DB
:1010B0005F8F00220D4B1A608CF3108800280EDB26
:1010C000C0BCB946B046F8BD01204042EFE7BFF3CF
:1010D0005F8F00232B608CF3108801204042434631
:1010E000002BEDD00898FFF785FFC0462C0100D0FB
:1010F000044A1078431CDBB2172B00D9102313705D
:101100007047C046C805002010B5064B064C82B09B
:101110000100009318221F232000FFF7A5FF02B053
:1011200010BDC0464C900010E41000200021044B7C
:10113000044ABFF35F8F02C39342FAD17047C0469F
:10114000000100D0800100D0054B064A1360064A1A
:10115000136053609360D360136153619361704770
:101160008080808000E400E004E400E01F23184059
:101170001E3B8340002905D0C021044A490053503A
:1011800013607047802201498B50FAE700E100E0CC
:1011900070B50D00EFF3108672B60F4A1368002B7E
:1011A000FCD0BFF35F8F0D4B10309B6884001B5940
:1011B0000B4A934203D09D4201D001F0BFF8074B88
:1011C0009B681D51BFF35F8FBFF35F8F0022024BFF
:1011D0001A6086F3108870BD240100D000ED00E095
:1011E000C1010010F0B557464E46DE464546E0B513
:1011F00085B0060000911700EFF3108B72B66A4AB3
:101200001368002BFCD0BFF35F8F0025674B5D5741
:101210009A46002D00DAA9E06B00654C01935B193A
:101220009B009846A146C1444B4652469B791036D6
:101230001370604BB6009B6899590B1B2F2B33D949
:101240005D4B994200D0ACE0019B42469C465B4B13
:101250006544AD0063535A4B0232A218043B9B1AFB
:101260001B05584A5B0D651913436B80564B0121D2
:10127000AB80FF23AB71009BEF71AB604B460B4320
:1012800019004C4B9B689951BFF35F8FBFF35F8F81
:101290000022454B1A608BF3108805B0F0BCBB46AA
:1012A000B246A946A046F0BD01200A008243D37988
:1012B0008C46BB4231D84546130044491B1B5B4159
:1012C0005943090D3D4B63533D4B02356519043BB2
:1012D0005B1B1B053B4D5B0D2B43AA464D466B80AC
:1012E0000425AC465546E044131F44441B1B1B0514
:1012F0005B0D1D434B46997100999D80996049464D
:10130000DF71334B01431360BBE75800C018800006
:101310002018C179B9422FD902000623D356002BD9
:10132000F3DA02932B4B61460393131D9A46042371
:101330005B429C46E14450464B461B1A1B055B0D25
:101340009C46204B957198466346404603439380E4
:10135000019B5A199200039BA418A380029B1C4A6C
:10136000A371009B2260E771A3608AE700F0E6FFAB
:10137000002553465D574FE7908802934005131DA3
:101380009A46031561469C464046D4446346043061
:101390002018181AE0230005400D1B021843039083
:1013A000C5E700F0CBFF4FE7240100D08A130020EF
:1013B000CC05002000ED00E0C101001000A1FFFFFE
:1013C000FC05002000E0FFFF01BDFFFFAAAA00000E
:1013D0000148804701BD0000F0B5DE4657464E4645
:1013E0004546E0B50C0083B0EFF3108872B6634A4F
:1013F0001368002BFCD0BFF35F8F614B61499A6883
:10140000030010339F00D55901938D4243D0A5426C
:1014100054D05D4EAA1B2F2A3DD85C4B9B461B68BF
:10142000994601231A009C4682404B4613401F22D6
:1014300099466346024093409A4680225B46504656
:101440009850BFF35F8FEFF305839B46002B37D097
:10145000019B5B4501D000F071FF01232A009A43F4
:101460009068844208D176E04B005B189B00F3182B
:101470009868844236D01A00062151560029F3DAC2
:10148000844254D04B46002B27D0C02251463F4BBC
:101490005200995019603A4B9B68DD51BFF35F8F42
:1014A000BFF35F8F0022354B1A6088F3108803B0BA
:1014B000F0BCBB46B246A946A046F0BD0D00EAE727
:1014C0002A0063469A4390688442D5D1062010567C
:1014D000130000280ADA0D0031E0802351462B4A20
:1014E000D150D8E706201856002821DB42001118F9
:1014F000890074188B46A1689960E179D971062139
:1015000061569971002924DBA488F11A6405241519
:101510005C44091909051E4C490D21439980131893
:101520001C4A9B001178F31899711070AAE71300F8
:101530005946002914D1FF319171174991801549FD
:101540000A789A71154A9B1B5B415A43120D0A7027
:1015500098E71149E2E70620105613000028C5DA83
:101560000F4A1049D21A083A5002400D014399809F
:101570000D4952080A43DA8084E7C046240100D0AE
:1015800000ED00E0C1010010CC05002000E100E00A
:1015900000E0FFFF8A13002001BDFFFFAAAA0000A0
:1015A0000606002000F0FFFF00F8FFFF70B50124E1
:1015B0000443EFF30581EFF3108C72B6214A1368F0
:1015C000002BFCD0BFF35F8F1F4B05001F4AED1AA5
:1015D0006D416A43120D1E4D8900AE6852B27658B5
:1015E000A6421CD00621595691421CD012215956B0
:1015F000914222D01E215956914220D02A2159567B
:101600000324914210D0134B19781A708171BFF3E3
:101610005F8F00220B4B1A608CF3108870BDAB6893
:101620000D4C5C50EFE700246100091989005B183C
:10163000FF21997109499980E5E70124F4E7022423
:10164000F2E7C046240100D0CC050020AAAA000081
:1016500000ED00E08A130020C101001001BDFFFF72
:10166000024B9C4661448900016070474000003491
:1016700070B5114C114DAC420FD2FF262368002BE0
:101680000CD0FFF735FD01002000FFF7E9FFA68031
:10169000BFF35F8F0834AC42F0D370BDFFF728FD75
:1016A00001002000FFF7DCFF2671BFF35F8F0834D5
:1016B000AC42E3D3F1E7C046880600209006002044
:1016C00010B50400FFF714FD01002000FFF7C8FF6C
:1016D000FF232371BFF35F8F10BDC04610B5040018
:1016E0000120FFF711FD034BC3189B002360BFF3DC
:1016F0005F8F10BD400000340A4B1968EFF3108073
:1017000072B60A68002AFCD0BFF35F8F1B68BFF374
:101710005F8F00221A6080F3108840BF00200021F4
:101720007047C04674130020F0B5DE4657464E465B
:101730004546E0B587B0EFF30583032201251A4043
:10174000954091008846A946B34B03925C58B34B31
:101750001D60B34B04934B46B24843630823E55ED8
:10176000002D37DAA3881BB2002B00DBADE0A37994
:10177000002B00D0EEE00823E05E002820DB4300D1
:1017800062691B18DB00D3189E68DD68731C00D1EA
:1017900011E1A44801004144826A0B69B71A9B1AFF
:1017A0009F4215D30123026A039883401A420FD047
:1017B0009C4800F047FB8D4202DCCCD18642CAD95E
:1017C00040BF07B0F0BCBB46B246A946A046F0BD3C
:1017D0000E61EDE762696B0092465B19DB009A448B
:1017E00053469E68DF6800F02DFB8F42BADC00D1C3
:1017F00003E1002F00DAE8E05246534652691B69C4
:101800009346049A934200D1D9E052460821605E83
:10181000528800045946104398470090019100995E
:10182000019A0B001000134300D1CEE013000A0010
:10183000B61A9F41002806DB7A4800F003FB009EA1
:10184000019F36184F4153469E60DF6000229A5E2A
:10185000002A00DA86E7530099186069C900411828
:1018600002938B68C9689B46B94200DD7AE702D1D2
:10187000B34200D976E708239C46A4440595654603
:101880002281A446029B2C0006E053009918C9004F
:1018900041188D68C968AB469B18DB00C318B94274
:1018A00006DC00D1B3E01C000023E25E002AECDA83
:1018B000230064469C4653461A806346059D1D805E
:1018C000A3881BB2002B00DA51E72269EFF31081E5
:1018D00072B61368002BFCD0BFF35F8F0123A7887B
:1018E0005B42A3803FB22369BFF35F8F00221A607F
:1018F00081F31088002F00DA39E723000833220033
:101900009A4666697B00DB19DB00F318996850463C
:101910008C460824115FDD68002910DB029306E085
:10192000AB4244D00023E15E2000002906DB4C00DE
:101930006418E4003419E368AB42F1DD029B0780D0
:1019400000201F5E1980002FDCDA1400A379002B21
:1019500000D110E70023A37126000823E15E0836BA
:101960004B1C00D12CE70800A246656902E03E004E
:101970004B1C1AD04B005B18DB00EF180A008C469A
:10198000E95E7B881BB2002BF1DA01235B42DC1796
:10199000BB60FC60824205D0534631801B893B808E
:1019A00053461A8160464B1CE4D15446E5E6A368D1
:1019B0006345B7D9C2E76B1C00D0EAE6F8E65B46A0
:1019C00058461B69984700281BD153461B8822693B
:1019D0002381EFF3108372B611680029FCD0BFF3A6
:1019E0005F8F514662880A8022696580BFF35F8FEE
:1019F0000021116083F31088B4E6864200D8F8E62F
:101A0000B0E65B461A685B680092019307E7B3454E
:101A100000D848E74CE7C046581300203C7005400A
:101A2000291700100040054070B52E4C2569002D87
:101A300004D00A212C48FFF713FE70BD2B4E032162
:101A4000300000F0F5F9E660FFF752FB284B032267
:101A50009C46D02322701B061B6801216370254B16
:101A60006044A3600F2380002061022063806369CB
:101A70004942A18019800231198647311D8358528D
:101A800018315A5275325C399952183201319952D3
:101A900018320131995218320131995208351832F1
:101AA0009D5202311832995218320131995218322E
:101AB000013199521832013199521832013199523B
:101AC0001832013199520C4B0C49DC6001303562FF
:101AD000FFF75EFB01210320FFF748FB084B1D6069
:101AE000A7E7C046140600207413002000400540FC
:101AF00040000034FFFF1000581300202917001089
:101B00003860054070B501000469EFF3108C72B6BF
:101B100020680028FCD0BFF35F8F02200D5E4C6967
:101B200068004019C00024180869002D36DB26889B
:101B30004E80BFF35F8F002606608CF31088E36051
:101B400063880498013320615B0405985B0CA260F4
:101B500060611A1C002B1FD093B2280462801843C6
:101B60000A69EFF3108C72B61368002BFCD0BFF338
:101B70005F8F8B8823808D800B69BFF35F8F00227E
:101B80001A608CF310880B7801329A40CB680849B0
:101B90008C4663441A6070BD0122DDE7BFF35F8F9E
:101BA000002303608CF3108801204042F3E7C04615
:101BB0003C20000010B543890A1493421ADD5300FB
:101BC0009B184269DB00D3180469EFF3108C72B6DE
:101BD0002268002AFCD0BFF35F8F5A88090494B2B0
:101BE000090C8A4208D00369BFF35F8F00221A6094
:101BF0008CF31088002010BD8022120214435C80F8
:101C0000012302698371BFF35F8F002111608CF3A0
:101C10001088044902788C469340C26801206244CF
:101C20001360E8E73C200000F0B5C64600B582B07E
:101C3000040000F00FF9FA2206000F002000002334
:101C40000021920001F0F0FA8019794104000D1E84
:101C500002DA01242E4D644206267642F717361921
:101C60006F41AF4214D811D000F0F4F832003B00BD
:101C7000121A8B41002B15DC002B46D020002900C6
:101C800000F026F902B080BCB846F0BDA642EBD900
:101C90000026002700F0DEF832003B00121A8B41CC
:101CA000002BE9DD00F0D6F832003B00121A8B4120
:101CB000002B0ADB00230193164B320000931648D9
:101CC0003B00FFF71FFF0130D8D000233900B0469A
:101CD0009C46124A1248536A994204D8966A46456D
:101CE000CCD29942CAD10668EFF3108772B6336836
:101CF000002BFCD0BFF35F8F0368BFF35F8F664696
:101D00001E6087F3108820BFE5E7002AB6D0C9E738
:101D1000FFFFFF7FF9160010140600200040054069
:101D200074130020F0B557464E46DE464546E0B5F2
:101D300006000F0085B0EFF3058399468B46002B14
:101D400012D0384900204B6ABB4206D38A6ADB1B9B
:101D5000591E8B41B2424041184305B0F0BCBB460E
:101D6000B246A946A046F0BD2F4B9A46DB6898467E
:101D700053461B784046039300F064F84246039BA9
:101D8000040004339B009B580D001B1A39003000DF
:101D9000001BA941894510DC0DD020BF214A00203D
:101DA000536A5B45D9D3926ADB1B591E8B41B24201
:101DB00040411843D1E78342EFD900F04BF832009D
:101DC0003B00121A8B41002B1ADB00230193174BA7
:101DD0003200009350463B00FFF794FE011E0FDDDA
:101DE000104B5A6A5A451BD39B6AB34216D35046CE
:101DF000FFF7E0FE0B4A0020536A5B45ADD3D2E704
:101E0000084A0020536A5B45A7D30020926ADB1B77
:101E1000B24240415A1E934118439EE75A45E6D1CB
:101E200020BFE4E70040054014060020F91600102A
:101E300010B5024A0248FFF7F5F810BD689000108F
:101E4000E81000200300416A0A00986A596A8A4231
:101E5000FAD17047034B596A0A00986A596A91424D
:101E6000FAD170470040054070B504000D00174AD4
:101E7000536A1900966A536A8B42FAD130001900EE
:101E800024184D41AB4216D813D0104B2A005B6A80
:101E90009D4203D90D494B6A9342FCD3934207D12B
:101EA0000A4A02E0516A994202D1916AA142F9D3E9
:101EB00070BDA642E9D9054B5B6A1C005A1CEFD0E5
:101EC000012201246442E5175242E3E70040054045
:101ED000064A536A9942FCD807D1044B02E05A6A79
:101EE000914202D19A6A9042F9D870470040054069
:101EF000F8B5040006200D0000F078F9002844D061
:101F0000374B3849E3185A1E9341802212049446F5
:101F10005B429B0D344A9B0563441360334A136054
:101F200018000A689043FBD12D4B314AE3185942FF
:101F30004B4180215B0049000620995200F056F980
:101F40002900C00000F04CFB0130C3091ED140271E
:101F500001226262A362266BF30722D4E36A254B57
:101F60000620E51800232B60266300F03FF93900B6
:101F7000800000F035FB7023E26A5A400E331340B4
:101F80002B601D4B23630323A364F8BD1B4A9342BC
:101F90001ED900231A4A1B4F6262A362266BF30705
:101FA000DCD5194B144AE3181A60656AA36A062047
:101FB000AD01ED1800F01AF9144900F011FBAD0263
:101FC0000100280000F00CFB0021FFF74DFFC5E7E2
:101FD0004006800E9F011A003F180300B9E7C04673
:101FE0000080FCBF08C0004000E0004000F000405E
:101FF000781300202C10000001030000FEFF0000F9
:10200000FFFF0000C0FF3F00303000004E0E000018
:10201000F8B5DE464E4657464546E0B58B460500C8
:102020000A991800160000F0DBFA0A9B6C001F02E8
:10203000324B64199C46A4006444636881469F4205
:1020400000D967602B1FDBB29846012B30D9C02323
:1020500080229B01E31812011A60294BAD005959E7
:102060009A4600291BD17301E026226853401E4086
:10207000802342465B01E3181E60012A30D9802389
:1020800080229B01E31812011A6053464A4667609A
:102090005A51F0BCBB46B246A946A046F8BD5869A5
:1020A00000F09EFA013043001B18033BFDD2DAE733
:1020B0005B46012BCBD1C02303229B01E3181A609E
:1020C000023AA3681A42FCD07301E0262268AD00F0
:1020D00053401E4080230A4A5B019246E3181E606B
:1020E0005A462168514003220A401A6001225B4689
:1020F0009A40A3681A42FCD0C1E7C0460080004065
:10210000EC100020F0B546464F46D646C0B51F003D
:10211000344B44009C462418A400644463688846F9
:102120001600FF2B02D880235B006360031FDBB225
:102130009A46012B30D9C02380229B01E31812015B
:102140001A60294B85005959994600291BD1730102
:10215000E026226853401E40802352465B01E3186C
:102160001E60012A30D9802380229B01E3181201CE
:102170001A6080235B0063604B465F51E0BCBA4647
:10218000B146A846F0BD586900F02AFA0130430074
:102190001B18033BFDD2DAE74346012BCBD1C0230A
:1021A00003229B01E3181A60023AA3681A42FCD08A
:1021B0007301E0262268850053401E4080230A4AAE
:1021C0005B019146E3181E6042462168514003229C
:1021D0000A401A60012342469340A2681342FCD091
:1021E000C1E7C04600800040EC100020014B800099
:1021F000C0587047EC100020F8B5040021481E00BC
:1022000017000D0000F0ECF90100380000F0E8F9CB
:10221000069B36041B031E432368002B20DB1A4B4E
:102220001A49E3185A1E93418022920194465B4258
:102230001B0B174A1B0363441360164A13601F00ED
:102240000A689743FBD1144B2560E2182123A06054
:1022500013602368002BFCDA0823E6601360F8BDE6
:102260003F2322681340AB42D9D1A3681B051B0D45
:102270008342D4D1EE22E368D2021340B342CED1DE
:10228000EDE7C046001BB7000040FDBF08C000409E
:1022900000E0004000F00040043000008023024ACB
:1022A0009B000B43D362704700800540002310B5AC
:1022B0000100988A1B8B984710BDC046162310B5A5
:1022C0000100188802331B88984710BDF8B54746AF
:1022D000CE4680B50F1E18D014239946043304004F
:1022E0000025012698464B461888434621681B88DE
:1022F000984701C4431E984101350640AF42F2D1D0
:102300003000C0BCB946B046F8BD0126F8E7C0466B
:10231000AA23064A1B0113608D235B00D360044986
:10232000044B19605368002BFCDA704700400240F0
:1023300000B0FA00006002407047C04610B5014886
:10234000FEF758FE8C90001070B5074D074EB54251
:1023500009D20024013E761BB60808CD9847230019
:102360000134B342F9D170BD988D0010D48D0010A6
:10237000054B064A06491A60064A074B1A601000C8
:102380000B689843FBD1704700E00040BFCDFBFED7
:1023900008C00040FE7F3C0000F00040044BDB6CB6
:1023A000002B03D18022034BD2021A607047C04633
:1023B000000011504C201150044A054B1A60054A88
:1023C0001368DB018033FBD17047C046FFFFFF017C
:1023D00000F0004008C000404022034B9A675A6753
:1023E0001A67DA667047C04600F0014010B5FEF784
:1023F0009DFE10BDF8B52749274C284D641AA6103C
:102400003200302E00D930222800920000F07CFFEC
:10241000BC2C3BD830202F232C196407204A801B6A
:10242000E40F9B1B052B16D93700002C02D0B300FC
:10243000771CEA50001B33199B004108EB18C900B8
:10244000C9181A605A6008339942FAD1012303422D
:102450001CD09843C619B300EA50731C2F2E15D018
:102460009B00EA50B31C2E2E10D09B00EA50F31CA8
:102470002D2E0BD09B00EA50331D2C2E06D09B0036
:10248000EA50731D2B2E01D09B00EA50054B9D6036
:10249000F8BDC04600010010C0010010000000207F
:1024A000C101001000ED00E0002310B5294C82B0FE
:1024B000A367FFF72DFF0122274B1A60636C012BE6
:1024C000FCD10322254B1A60224A936B012BFCD1CD
:1024D000013300930121224A22480433FFF78CFE86
:1024E000052301210093204A2048FFF785FE0022A2
:1024F000022104201E4BFFF705FE002201210520CA
:102500001C4BFFF7FFFD0022002107201A4BFFF7AD
:10251000F9FD002200210820174BFFF7F3FD80236F
:10252000DB000093002200210920134BFFF770FD10
:102530000022104B00210620FFF7E4FD0420FFF7E6
:1025400055FE0E4900F04CF801000020FFF7A6FEF2
:1025500002B010BD008000403CB0004030B00040F0
:10256000002F685900800240008C864700C002405E
:10257000001BB70040597307006CDC0240420F009B
:1025800001480421014B184730060020CD220010DD
:10259000124A936F9B0815D29066D166002905D028
:1025A000FFE7FFE7FFE7516F106F704704B5802129
:1025B0000906C2175140002800D0C84306F0BCFBF2
:1025C000002104BDF0B5146E556E576F166FFFF7FE
:1025D000E3FF1466556657671667F0BD000000D02C
:1025E000114A936F9B0813D210665166002905D0DB
:1025F000FFE7FFE7FFE7516F106F704704B5002852
:1026000001D00020C04306F097FB002104BDC04666
:10261000F0B5146E556E576F166FFFF7E5FF146631
:10262000556657671667F0BD000000D094464A4AC9
:10263000926F9208624601D228E0C046F0B5464E3D
:10264000346E756E776F366F00F020F89446424A0C
:1026500014665566576716676246F0BD94463E4A53
:10266000926F9208624601D254E0C046F0B53A4EED
:10267000346E756E776F366F00F04CF89446364ABC
:1026800014665566576716676246F0BD002B24DB5B
:1026900011D000293EDA00B5C943404200D10131D2
:1026A00000F038F8C943404200D10131DB435242C7
:1026B00000D1013300BD002AEBD1002801D100294F
:1026C00005D00020C90FC90701D1C043410800B59A
:1026D00006F02AFB0022002300BD00B500290ADB1A
:1026E000DB43524200D1013300F014F8C9434042A9
:1026F00000D1013100BDC943404200D10131DB436B
:10270000524200D1013300F005F8DB43524200D1C0
:10271000013300BD002923D1002B18D1002A0CD091
:10272000BC460D4F38667A6600210023FFE7FFE7BD
:10273000FFE77A6F386F67467047002801D0074877
:10274000010000B506F0F0FA0022002300BD0200EF
:102750000B00002000217047000000D0FFFFFFFFAA
:10276000002B00D0BFE0130C28D1002AE7D080B4A2
:10277000114F39667A66FFE7FFE730B4040C7B6FD0
:10278000396F1B0423433B667A66FFE7FFE7FFE7E9
:10279000C04684B27B6F3D6F1B0423433B667A6661
:1027A000FFE7FFE7C04600232C042D0C7A6F386F3B
:1027B00000196941B0BC7047000000D0F0B59446E4
:1027C0000025140E01D112020835140F01D1120197
:1027D0000435940F01D192000235D40F01D152007B
:1027E0000135D40B0134254F7C66254C3C660E0C1C
:1027F00093B2FFE7FFE7FFE73C6F6643360C7703D2
:10280000BE467343DF0B5B04C01AB941130C73431C
:10281000DB18C91ACE086643360CB64493B273432C
:102820001F0F1B01C01AB941130C73431F0B1B056B
:10283000C01AB941860D8F023E436643360C092DFE
:1028400024DB520A7243801A7703460A6643360C29
:1028500016235B1BDE40DF40BF1964466643821BC4
:102860007046043506330100D940A840C01900D392
:102870000131A24206D20023F0BD0000000000D0CA
:10288000FFFFFFFF121B0130F3D3F1E709277F1B86
:10289000FE406446A2B27243801A00D20139220C73
:1028A0007243130C1204821A99410B0070460435CE
:1028B00013370100F940A840801900D30131002BE3
:1028C00002D1A2420AD2F0BD013000D30131121B65
:1028D000FAD2013BF8D1A24200D2F0BD013000D3C0
:1028E0000131121BF7E7F0B51C0C00D080E00CB4EE
:1028F00000251C0A04D11B02160E334312020835B0
:102900001C0B04D11B01160F3343120104359C0B21
:1029100004D19B00960F334392000235DC0B02D1A9
:1029200092185B4101351C00971864410134464FF1
:102930007C66464C3C660E0CFFE7FFE7FFE7C046AF
:102940003C6F6643360C7703BE4697B27743C01B95
:1029500000D20139C01B00D201399FB27743C91B95
:10296000C91B170C77437E04FF0B801BB941CE08AF
:102970006643360C0C2D33DBB644120B1F053A436D
:102980001B0B97B27743C01B00D201399FB277432C
:10299000C91B170C77433E043F0C801BB941860DC1
:1029A0008F023E43664329277F1BFE400C3D77463E
:1029B000AF40BF1930BCA2B2ABB272437343801AAE
:1029C0009941220C7243130C1204801A994102009F
:1029D0000B000137001BA941F9D2781E0021F0BD80
:1029E0000C277F1BFE4077467F0BAF40FF19E0E7C7
:1029F00000245D1C07D0144F7D663966FFE7FFE7B2
:102A0000FFE7FFE73C6F95B29EB265436643401B0C
:102A1000B141150C1E0C6543664336042F0C3E4332
:102A20002D04401BB141994204D202000B0020004A
:102A30000021F0BD01D19042F7D3801A99410134B1
:102A40009942F2D3F6E70000000000D0FFFFFFFF3D
:102A500048404140484018B41B4B5B68FC4601931A
:102A600008BD04DFFB2C001018B4174B1B68FC4694
:102A7000019308BD00DF052D00109446134A926FA4
:102A8000920809D2624618B40F4BDB68FC460193EA
:102A900008BD0CDFBD2F00100C4AF0B5146E556E4A
:102AA000576F166F6246FFF7EEFF084A14665566C9
:102AB00057671667F0BD18B4034B9B68FC4601933B
:102AC00008BD08DF612E001010080020000000D0B3
:102AD000FFB550404240504059404B40594000E003
:102AE000FFB5154F4C00640D03D0BC4204D10C035C
:102AF00014D80020090D09055C00640D03D0BC4208
:102B000004D11C030AD800221B0D1B0501264B40D3
:102B100009D44B4003D58B4200D18242FFBD99427C
:102B2000FCD19042FFBD0B43DB1803431343F5D0A8
:102B3000C9434918FFBD0000FF07000000B5FFF7BB
:102B4000CFFF804100BDC04600B5FFF7C9FF01D9E6
:102B5000002000BD012000BD00B5FFF7B9FF01D97D
:102B6000002000BD012000BD00B5FFF7B1FF80418E
:102B700000BD012040054A00121804D85A0012185E
:102B800001D8002070470120704700000021002874
:102B900005D17047C1174840401AFAD0C90713B58C
:102BA000064B1B6898470CBC441CA2401005120B36
:102BB0000349091B09051943114310BD7013002077
:102BC0001F04000010B54C00620D8023D218DB00FA
:102BD000D21A5B057E2A10DD9E3A13DACC17090360
:102BE000490819435242D140640001341532202A69
:102BF00005DAD0400843604310BD002010BD0846F0
:102C0000604310BDC80FC018013810BD18B4044B84
:102C10005B6AFC46019308BD24DF6D3100100000A3
:102C200010080020132370B51D78012D19D014DD74
:102C30001F48FFF743FB06001E48FFF73FFB1E4CF3
:102C400080223100200000F05FFB022D2DD01B48B8
:102C5000FFF72CFB1A4B186070BD1A4B164CA3647F
:102C6000F5E7184B144C23606360A360E3602361B5
:102C70006361A361E36123626362A362E36223632E
:102C80006363A363E36323646364A364E36423650E
:102C90006365A365E36523666366A366E3662367EE
:102CA0006367A367E367A364D1E7064BA364CEE73A
:102CB0005344000053460000100800204C3300002D
:102CC00070130020C92C001007B5604601880A0A5D
:102CD0000230DF2AFAD1C9B2820804D302884088C0
:102CE0000004104300E00068014A5050039007BD03
:102CF000100800200FB403BC0CBCF0B50124E4079D
:102D0000634000E0F0B50C0DCF0F661E3605891B41
:102D1000640503D3C943404200D30131640D03D09D
:102D2000661CF60A07D0E41B00207F00791C890787
:102D30008912803C24031D0DDF0F6E1E36059B1B80
:102D40006D0503D3DB43524200D301336D0D03D035
:102D50006E1CF60A07D0ED1B00227F007B1C9B0730
:102D60009B12803D2D032F1B661B58D4A446202E9A
:102D700046DA20371400BC401D00BD40F24033410C
:102D80002A4380185941CB0F05D0C943C0430022C4
:102D900064425041514162464D0D28D10D0D07D17D
:102DA00000281FD0241940414941013A0D0DF9D0A6
:102DB000640006D3013000D30131002C01D140085A
:102DC0004000013A0BD4941CE40A04D112051144CA
:102DD000DB071944F0BDD907204B194300E0D907A0
:102DE0000020F0BD0029DDD1002CDBD1F0BD013287
:102DF000C6074008CD0728434908002EE1D0D9E78F
:102E00003C2E29DA203E40371400BC4000D001247B
:102E1000F24014431A00BB401C43D317ACE7AC4646
:102E2000202F08DA20360400B4400D00B540F840E9
:102E300039412843A5E73C2F0CDA203F40360400F7
:102E4000B44000D00124F84004430800B1400C43D2
:102E5000C117EAE710001900002494E70000F07F92
:102E6000F0B50C0D661E3605891BE60A6405640D77
:102E700002D0651CED0A04D0002001210905803C28
:102E80002403A4461C0D671E3F05DB1BE70A6405EF
:102E9000640D02D0651CED0A04D0002201231B053D
:102EA000803C24037740644497B484B296B2744360
:102EB000070C7E43150C6F4380B26843361802D36B
:102EC000012000043F183004350C00197D41844670
:102ED00088B29AB250430C0C62431F0C7C438EB2F2
:102EE0007E43921902D301263604A4191604170C46
:102EF0003618674101BC81B29AB25143040C624357
:102F00001B0C5C4380B25843121802D3012000040A
:102F100024181004130C401863412D185E41002042
:102F2000474106BC88B293B258430C0C6343120C61
:102F3000544389B251435B1802D301210904641838
:102F400019041A0C091862416D18564100204741B6
:102F500018BCF902720D1143F0026A0D1043ED0224
:102F60000A0D03D16D1940414941013B124E9B1B93
:102F70007600B3420ED26D0007D3013000267141B6
:102F80006646354301D1400840001B05C918E407D7
:102F90002144F0BD0BDA013306D1013004D10131F7
:102FA0004F0D01D04908F2E7E1070020F0BD0136DE
:102FB00031050020EBE70000FF030000F0B51C0D19
:102FC000671E3F05DB1BE70A6405640D02D0661C23
:102FD000F60A04D0002201231B05803C2403D025DF
:102FE0002D060026F6432E661E096E66CE0FF619D4
:102FF000B44649004F0D02D07E1CF60A03D00020D3
:103000000021403F3F033E1BB600B444013F7F0513
:10301000C91B49082E6F013676089C02950D254381
:103020007543ED137543AD1301356D10F603761B33
:103030000CB4CC02450D2C43A2B2B3B25A43270CB8
:103040007B43350C6F43A4B26C431B1902D301249C
:1030500024043F191C041D0CA4187D4124196D4142
:10306000009A91B2ACB26143170C7C432B0C5F43C6
:1030700092B25A43A41802D301221204BF182204A8
:10308000230C52187B41019C6C431B19520ED90131
:103090000A434401A01A81B2B2B2514303145A4305
:1030A000360C734387B27743D617D21900277E4177
:1030B00036049B191704160C7F185E417316ED1821
:1030C000F301002680337541A90F06D16400690A17
:1030D000E8055B0A184309D22FE0042294448033A8
:1030E0007541A90AA8059B0A184326D340414941C6
:1030F0002404009A019B0D005543641B4343E41ACA
:1031000095B286B27543170C7E43030C5F4392B2AF
:103110005A43B61802D301221204BF183204330CEA
:1031200052197B4152429C41002C02D400220130B2
:1031300051414008CA071043490802B06246D70708
:103140009210084BD218084B9A4203D212058918E4
:10315000C919F0BD0020002A01DC3900F0BD01339F
:103160001905F5E7FD030000FE070000002200B589
:10317000203200F004F8080000BD000000220B150A
:103180000AD410B5944600F031F81414013400DA72
:103190000021CB17144C20470020002170476244C7
:1031A000343A0CD40C2A07DA040091409040524281
:1031B0002032D440214310BDD843D94310BD203222
:1031C00007D40C469440524220321141D040204353
:1031D00010BD0800C917203203D4524220321041DA
:1031E00010BD1800190010BD9F3100100A0DCC0F42
:1031F000531E1B05C91A520503D3C943404200D3CD
:103200000131520D03D0531CDB0A07D0121B0020E2
:103210006400611C89078912803A1203014BD21A9B
:1032200070470000FF03000051434343C9188C4618
:10323000110C83B24B4310B4040C614392B280B2C0
:10324000504362431C041B0C001910BC5941130469
:10325000120CC0185141614470470000132310B58F
:1032600012481C78FFF72AF80100012C0AD003DD70
:1032700080220F4800F048F80E48FFF717F80E4B71
:10328000186010BD0A4C5422200000F03DF80B4B92
:103290006365A365E36523666366A366E3662367E8
:1032A0006367A367E3672362E361E5E753460000D2
:1032B000100900204C33000070130020C1320010B0
:1032C00007B5604601880A0A0230DF2AFAD1C9B27E
:1032D000820804D3028840880004104300E000689C
:1032E000014A5050039007BD1009002001480421F5
:1032F000014B184740060020CD220010014B1B68EF
:103300001847000040060020014B5B68184700008A
:10331000400600207047C046F8B55746DE464E4688
:103320004546E0B599460A9B07009A460D9B88469C
:1033300093460B9C9B073BD10C9B9C423DD21E1B92
:103340000B9415000C005E442A004B460135210009
:103350002020B847B542F7D1A0460B9C002C20D0C6
:10336000454636195346321B013C185D29004B4631
:10337000B847002CF6D12B00350098460D9B9B07D3
:103380000FD55B46EC1A0C9BA3420AD946469846D9
:103390002A004B46310020200134B847013544450E
:1033A000F6D32800F0BCBB46B246A946A046F8BDFD
:1033B00016001500002CD3D1E0E716001500002CF4
:1033C000CED1EEE7F0B54546DE4657464E46E0B56F
:1033D00085B09C4610AB1B78149F934698460F9C73
:1033E000129E139DBB074CD4002D42D1B44248D24B
:1033F00001233B4099460E9B013B9A46302304E053
:10340000524601341355A64201D9202CF8D14B461F
:10341000002B00D183E00E9B013B99463023A5424F
:1034200005D82EE04A4601341355AC4229D0202C51
:10343000F8D1FB060CD57B0554D4A64263D0A54237
:1034400061D0119B102B50D0022B57D0202C32D1A1
:10345000202301930E9B5A460093039763460295DF
:10346000FFF75AFF05B0F0BCBB46B246A946A046DE
:10347000F0BD01233B40994601233B422AD1B4428F
:10348000B9D3FB061CD57B05DBD4002CD5D1119B11
:10349000102B5BD0119B022B6BD0302301240E9A92
:1034A00013704346002B10D17B073ED52B260E9A76
:1034B000631C1655CDE72300013430260E9AD654EE
:1034C000202CC5D04346002BEED02D260E9A631C2F
:1034D0001655BEE74346002B2FD0013DB44200D223
:1034E00089E798E7119B102BB2D1BB0637D5202C6A
:1034F000AED058230E9A13550134A7E7202CA7D03D
:103500002300013407E0631E012CC0D0119A102A59
:1035100031D0022AD1D162260E9AD65496E7FB0604
:10352000CED57B0500D488E78BE723003E0790D5F6
:1035300020260E9A013316558BE70C233B405A1E6A
:103540009341ED1AB44200D255E764E7BB060ED4AE
:1035500078230E9A0224137030235370A1E7202C95
:1035600000D175E778230E9A135501346EE758237E
:10357000EFE76033EDE70E9AA61E91464E44BA0679
:1035800002D55822327098E77822327095E7C0460B
:1035900010B5002800D110BD01F080FCFBE7C0464B
:1035A0000B0010B5002802D049681B68984710BD71
:1035B000F0B55746DE464E464546E0B595B08346E3
:1035C0000F00924698461E9A1F9B10001900209EDD
:1035D000FFF7CFFA002800D0EAE11E981F990122D8
:1035E000C54B5242FFF7AAFA002800D014E11E98FA
:1035F0001F990122C14B5242FFF7B6FA002800D0B2
:10360000E9E01E981F990022BD4BFFF7ADFA002894
:1036100000D0C8E01E981F990022BA4BFFF78EFA1F
:10362000002800D0BFE01E981F9900220023FFF75A
:1036300085FA002800D0E4E000230B93229B5B0571
:1036400000D406260024302307E0172106AA0134FF
:1036500052181355013E202C01D0092EF5D81E9882
:103660001F99FFF7AFFAA84BF2009B181A685B6826
:10367000050008920993FFF78DFA02000B001E98CF
:103680001F99FFF7E8F9089A099BFFF714FA0690CB
:103690000791FFF7BBFA8146FFF778FA02000B00AB
:1036A00006980799FFF7D7F90022984B06900791E3
:1036B000FFF75AFA002800D10DE101239C46E144AE
:1036C0004846FFF763FA02000B0008980999FFF7D4
:1036D0003BFA002802D0002399460135002E00D184
:1036E000D9E006954D46B94614E006AA944617233C
:1036F0000A216344280001341F19FEF771FF30319D
:10370000397028000A21013EFEF76AFF092D00D812
:1037100017E10500202CE8D14F46069D20240CAE71
:1037200006AA17239446634499465B46B34606931C
:103730000FE04B4628000A210134E618FEF728FF67
:103740003031280031700A21FEF722FF051E00D11A
:10375000E4E0202CEDD1069B5E469B460323229A93
:103760001340012B18D1219B002B15D00B9B002B54
:1037700000D1FDE0219B013B2193202B0CD930236C
:10378000219A07E0172006A9013409180B55944225
:1037900000D3CCE0202CF5D1229B01940393219BF4
:1037A0000096029322E0229B52460493219B39000B
:1037B000039358461E9B1F9C029600930194434618
:1037C00000F04AF90400200015B0F0BCBB46B24638
:1037D000A946A046F0BD229B5B070FD403224C4BA9
:1037E00022990192039121990093029143465246F6
:1037F00039005846FFF790FD0400E4E70422454BEA
:10380000EEE71E9A1F9B00200021FFF724F90123F9
:103810001E901F910B9311E7229B54469B0711D1D9
:10382000219B042B0ED9219B55469C465E46043CA9
:1038300064442A004346013539002020B047A542A0
:10384000F7D1B346344D26002B1F99465B46A3465D
:103850001C003200E87843463900013DA04701369C
:103860004D45F6D123005C469B46229B04349B07C2
:10387000A9D55346219AE31A9A42A4D95E46150067
:103880002200434639002020B04753460134E31A52
:103890009D42F5D897E72800FFF77CF902000B005E
:1038A0001E981F99FFF7D7F80022184B0690079132
:1038B000FFF744F90CAE002800D031E706980799CD
:1038C0000022124BFFF750F9002800D028E701230F
:1038D00001359D4324E70022069807990B4BFFF71B
:1038E0002DF9002800D0F9E64B46002B5CD10123CE
:1038F0009C46E144F2E6C046FFFFEFFFFFFFEF7F8B
:1039000065CDCD4165CDCDC1D09300100000E03F25
:10391000E8900010E0900010F0900010069B5E46CA
:103920009B460323229A1340012B00D181E0202CD7
:1039300000D131E70B9B002B27D02D2333550134C9
:103940002AE74F46069D202C00D1E7E630223319A6
:1039500007E0172006A9013409180A55202C00D1C8
:10396000DCE6A342F5D12E220CAE0134F254D7E6A8
:103970000C23229A134257D0219B013B2193A3424F
:1039800000D9FCE6202C00D106E7229B5B0703D57B
:103990002B2333550134FFE6229B1B0700D4FBE6A3
:1039A000202333550134F7E6DB0700D496E69EE783
:1039B000229B55469B0711D1219B032B0ED9219B9E
:1039C00054469C465E46033D65442200434601340E
:1039D00039002020B047AC42F7D1B346B9465F4624
:1039E0001C4EEC1C2A00B078434649460135B847C6
:1039F000013EAC42F6D1229BBB464F469B0700D40A
:103A0000E1E65346219AE31A9A4200D8DBE65E4685
:103A100015002200434639002020B04753460134A8
:103A2000E31AAB42F5D3CEE6219BA34200D9A6E62A
:103A3000B2E6219B002B00D179E70B9B002B97D09E
:103A4000219B013B21939C4200D298E6202C00D080
:103A500073E7A1E6EC900010F0B5DE4657464E46FF
:103A60004546E0B599B081468B4692469846229AE3
:103A7000239B10001900FFF77CF8002800D0CAE053
:103A8000229823990122824B5242FFF76DF80028B9
:103A900000D0C0E02298239901227E4B5242FFF7CA
:103AA0004DF8002800D0B6E0229823990022002388
:103AB000FFF744F8002800D0C9E1229B239C08931B
:103AC0000994089809998023269ADB001A400D92E0
:103AD0008022269C1201144022000B94269C070091
:103AE0000E001C4200D0ADE00B00034300D0D5E037
:103AF000002A00D00AE22200063324930223134056
:103B00000C930223134200D002E2259B042B00D227
:103B10000FE2043B0B93002304250A930022229812
:103B200023990023FFF70AF8002800D003E25A4B3C
:103B3000269A134004930B9B0393249B0293089BA8
:103B4000099C009301945946434652464846FFF764
:103B50002FFD02002020269B1F27034059424B4186
:103B60005B421840531C0893594643464530C847AA
:103B70000A9AD317D4185C40D30F0A936B1E0B9389
:103B800008AB9C460025674401E0202D0FD02000A3
:103B90000A21FEF725FD01357E19303131702000F4
:103BA0000A21FEF71DFD26000400092EEDD805238D
:103BB00006930B9B59460593002304930A33039302
:103BC0000A9B4846029310AB0093089A434601951E
:103BD000FFF7F8FB0C9B002B2DD05346C41A259BF6
:103BE000A34228D94D465F4681461E005346390000
:103BF0001A19202043460134A847A642F6D8534656
:103C000048462599C21A01320023914200D386E129
:103C1000013018180FE0269B0493259B0393249BE7
:103C20000293229B239C009301944346524659469B
:103C30004846FFF7BDFC19B0F0BCBB46B246A946EA
:103C4000A046F0BD01432BD10B9B2200002B00D1DD
:103C500054E700230A93249B0A9A0024934200DD30
:103C600085E12298239900220023FEF767FF0028B0
:103C700000D035E1269B084A02941A408023DB00DD
:103C800013430493259B0393089B099CCBE7C046F1
:103C9000FFFFEF7FFFFFEFFFFFF7FFFF06232493F8
:103CA000B44B70009C46400D6044FEF773FFB24A6F
:103CB000B24BFEF700FFB24AB24BFEF7D5FE360319
:103CC000B14B360B334304000D00380019000022BD
:103CD000AE4BFEF7C0FEAE4AAE4BFEF7ECFE020066
:103CE0000B0020002900FEF7BFFEFEF76BFF0A90D5
:103CF000FEF750FFA84AA94B04000D00FEF7DBFEBB
:103D00000022A74BFEF7B0FEFEF75CFFA54A0600B7
:103D1000A54B20002900FEF7CEFE040030000D0068
:103D20000C96FEF737FFA14AA14BFEF7C4FE020036
:103D30000B0020002900FEF78EFE02000B0006009B
:103D40000F00FEF7B8FE320004000D003B0030000B
:103D50003900FEF789FE00220E900F91954B20004E
:103D60002900FEF78AFE0022934BFEF77DFE02003B
:103D70000B0020002900FEF780FE00228F4BFEF78B
:103D800073FE02000B0020002900FEF776FE0D00F6
:103D90008021040032003B000020C905FEF75BFED5
:103DA00002000B0020002900FEF75EFE02000B005F
:103DB0000E980F99FEF761FE0022734BFEF754FE3A
:103DC0007F4B0C9C9C46644400222305FEF773FE47
:103DD00006000F0002000B0008980999FEF7AEFEDE
:103DE00000280AD00A9B3000013B39000A930022C8
:103DF000714BFEF742FE06000F000A9A3300633251
:103E00003900C62A12D802222698042510400B9A9F
:103E10000C90002A25D1259B042B05D9002800D021
:103E2000A1E0259B043B0B93042541E00222269848
:103E300010400B9A0C90002A12D1259B052B76D9A5
:103E4000002872D1259B0525053B0B9334E0802289
:103E500012069446229B0893239B6344099330E601
:103E600005250B4300D1F6E608980999554A564BAB
:103E7000FEF772FE002808D0089809990022534BDB
:103E8000FEF75CFE002800D0E5E6249B002B1CD04A
:103E90000D9B002B19D0249B013B2493259BAB4207
:103EA00004D90C9B002B5AD002230C9300230B93B4
:103EB0000A9B002B00D131E60898099932003B009B
:103EC000FEF7DBFD0890099128E6259BAB42EDD972
:103ED0000C9B002B43D000230B9302330C93E7E79A
:103EE0008020269B3A4A00061A408023844602948A
:103EF000089C099D2900DB0013430493259B614422
:103F0000220003930B00009201938EE60524A8E69D
:103F100000230B930A93023304250C93FEE55346CA
:103F20008C46013B63441B1A72E602230C93052561
:103F3000C2E70423EDE58020089E099F00063900B2
:103F40008446269A224B6144134004930B9B320013
:103F50000393249B02930B0000920193F3E5259BAE
:103F60005B1B0B93A4E7022304250C93A0E79C1A88
:103F7000013C76E601FCFFFFFB799F501344D33FE1
:103F8000B3C8608B288AC63F0000F03F0000F83FAE
:103F900061436F63A787D23F71A379094F930A40AA
:103FA0000000E03F1655B5BBB16B0240EF39FAFE99
:103FB000422EE63F00002C40000024400000184044
:103FC000FF0300002D431CEBE2361A3F80842E4194
:103FD000FFF7FFFFF0B5DE4657464E464546E0B5D3
:103FE000A5B01E002E9B92460C93CD4ACD4B804629
:103FF0008B461A60002900D1EAE100233078994607
:10400000002800D1ECE1C84B4C460B93C74B45460A
:1040100057460E930AE0631C984622003B0059461F
:10402000A84744463078002800D187E0013625288B
:10403000F1D108239A46043B9946023B9846013B3E
:1040400000229C460D943078711C0300203BDBB2AB
:10405000102B03D80B9C9B00E3589F460300303B7A
:1040600089460D9C092B3AD9002398462A2800D16D
:10407000C1E000239A462E284BD00300683BDBB2F8
:10408000122B1ED80E999B00CB589F4663460E00FC
:104090001A43D8E743460E001A43D4E74B460E00B6
:1040A0001A43D0E710230E001A43CCE753460E0004
:1040B0001A43C8E780235B001A43FF3B9C46707895
:1040C000E1444E4667284FD82428A4D90300253B55
:1040D000DBB2422B9FD896499B00CB589F460023CA
:1040E00094461E0000E00131B3009B195B001E18CE
:1040F0000878303E0300303B092BF4D90123624697
:1041000089469C460023B0469A460E00E1442E287C
:10411000B3D13021802049428C46C00002437078E0
:104120004B4684446146092900D86CE12A2800D115
:104130007AE101239C464E46E1449EE7A146A8460B
:10414000BA46CA4503D801235B42534499465346B5
:104150004A4659460020C047200025B0F0BCBB4667
:10416000B246A946A046F0BD0300693BDBB20D9301
:104170000F2B00D94FE7012199408C466D498946A4
:1041800061464B4619400F91634649460B4200D0A9
:1041900028E10D9B0A2B3AD0072B00D03BE70C9B64
:1041A000190008C98846002B00D14BE121200243A9
:1041B000914614A98C461F220F2162448C46514619
:1041C0000D950C91A24615000F9902E020290CD004
:1041D000130064461C4020003730092C00D80738F3
:1041E000013168541A090F2BF0D80C9B54460D9DD1
:1041F0009A460F9133E10C9B02CB8846002947DB9E
:104200000C9301239C4670784E46E14431E70C9BA9
:1042100002CB14935346002B00D138E19C4608781A
:104220000B000C908C44002801D100F098FC8946CA
:104230006146944603E05A780133002A01D08B424C
:10424000F9D1494662465B1A0C900F93530500D58D
:1042500020E10223180010400D90134200D1CBE35F
:104260000D930B1BB1469A465E460C9822003B000C
:104270003100A84753460134185D0028F6D1B346F3
:104280004E460D9B002B00D0C7E1149B0C93C9E652
:104290000C9301239C462838494202438846707893
:1042A0004E46E144E5E670786C2800D17FE180233A
:1042B0005B001A43FF3B9C46E14402E780239B00DE
:1042C0001A4301239C467078E144FAE67078682826
:1042D00000D173E180231A437F3B9C46E144F0E622
:1042E000672800D103E1472800D15AE1452800D1D1
:1042F0005AE10492072142460C9B0392073352462F
:104300008B43190002920CC92800009201930C9172
:1043100022003B005946FFF79FFB040082E6C0469F
:10432000D53F00103C130020309200107492001012
:10433000C092001041900000462800D1DBE00492BA
:10434000072142460C9B0392073352468B431900C8
:1043500002920CC92800009201930C9122003B00AC
:104360005946FFF725F904005CE6631C98462200D5
:104370003B0059462520A847444653E60C9B04338E
:104380000D93631C9946920700D422E10C9B2200F6
:10439000187859463B00A84743464444012B00D8AF
:1043A00085E23300B8462E005F4625004C4699460C
:1043B00022004346013439002020B047AC42F7D1F7
:1043C0002C00BB46350047464E460D9B0C9329E614
:1043D000DB4B3078984600239946002800D012E63F
:1043E0000024AEE66F2800D188E000D80BE310234C
:1043F000782800D1CFE09A430A239C4600230F93EC
:104400000A330D9380E05646B10089194900013303
:104410000E181878303E010030390929F4D9B24617
:104420001E000133994628E60C9B023602CB8A46D1
:10443000C9435046C917084082460C933078731C14
:1044400099461AE610231000984311331843814609
:1044500080201300C0000340024200D1A9E64B4671
:1044600006930823059353460493102303930023D4
:1044700002930F9B220001931CAB009359463B0013
:104480002800FEF79FFF434604000C93CAE5012372
:104490005B42C3E60F9B534501D953460F9302235A
:1044A000180010400D90134200D1B7E10D93D14692
:1044B0000B1B9A463300A1442E0022004D460C9857
:1044C000B9465F469B4608E04B463900541CB0474E
:1044D0005346185D002877D022009542F4D15B4600
:1044E000BB464F46A94635004C461E00C9E6802310
:1044F0001B011A43FDE620231A4320E708239C46AC
:1045000000230F9308330D9380231100DB00194023
:104510001A4200D116E10D239A43100080230200B5
:104520009B001A401492184200D0C2E1802302007E
:104530005B001A4091460C9A04320F92184200D048
:10454000B7E2430600D59FE1030600D419E30C9BB4
:104550001B880993002B00D0FCE1103398430029FD
:1045600000D1F7E10023994643460593534604934F
:104570000D9B069003930023D2E0582808D06228B0
:1045800067D102239C4600230F9302330D93BBE7B0
:1045900020231A43103B9C4600230F9310330D93A6
:1045A000B2E780231B011A4320231A43A1E6C0234C
:1045B0009B001A43F31C9946B07882E5C0231A4346
:1045C000F31C9946B0787CE535005E46BB464F4605
:1045D00057E64346012B00D863E1631E43449A46E5
:1045E0003300B9462E005F4655469B46A246220040
:1045F0004B46013439002020B047AC42F7D135009A
:104600005E46BB464F46A14654460C9B4A46187828
:1046100059463B004444A847D7E6A1460F9B98451E
:1046200000D832E64444E41A3300B8462E005F4610
:1046300025004C469946220043460134390020208B
:10464000B047AC42F7D12C00BB46350047464E463A
:104650001BE680231000DB0018401A4200D10FE156
:10466000112118008A430D920D9A802311009B009E
:1046700019408C461A4269D1802311005B00194011
:1046800089460C9904310F911A4200D0CAE11300F7
:104690005B0600D5F0E013001B0600D459E20C9B2A
:1046A00000229B5ED9175A184A4092B2D90F0C913A
:1046B000002B00D1F9E1100014AA944642461F23B2
:1046C000149252466344A84616944D460400B946D7
:1046D000B2461F00159201E0202D0FD020000A21C4
:1046E000FDF77EFF01357E193031317020000A213F
:1046F000FDF776FF26000400092EEDD8149B4F46E7
:10470000A94645469846159B56469A46169C0D9BCB
:10471000069343460593534604930A2303930C9B45
:1047200002934B4601931CAB2200009359463B0079
:104730002800FEF747FE0F9B04000C9372E4C0466E
:10474000153300100C239A431000E7E607220C9B58
:1047500007339343013294469C4462460C920CCB3F
:10476000D90F0F911100194300D191E0D91713917E
:10477000129151401091139959401191109811992B
:10478000129A139B801A99411090119114AA002338
:10479000944642469946149252461F336344A846B3
:1047A000B24616944E46109C119DB94615921F00B4
:1047B00001E0202E10D0200029000A220023FDF75E
:1047C0004DFF013630322B00BA550D002200040097
:1047D000002BEED1092AECD8149B10941195454674
:1047E0009846159B4F46B14656469A46169C0D9BD9
:1047F000069343460593534604930A2303930F9B62
:1048000002934B4601931CAB2200009359463B0098
:104810002800FEF7D7FD0400FFF704FC0F9B984526
:1048200000D8C1E18023DB000D9343460F9A1B198A
:104830009B1A994633002E004D46B9465F469B466B
:104840000C9122004B46013439002020B047AC4285
:10485000F7D143460C9901330F930B7835000C9335
:104860005E46BB464F46002B00D10EE50D9B002B4C
:1048700000D1F6E4002319E60C9B1B781A0015E71B
:1048800010239A430D92EFE60C9B1B78099361E687
:10489000002399460028AAD10022002310921193E8
:1048A00074E70C9B2200187859463B00A8474C46F9
:1048B0008BE50C9AFA3BFF3B07329A43013399464A
:1048C00091444B460C931368526815921A4306D1D3
:1048D0001032904300220992002900D081E0612229
:1048E000810600D54122D2B20A9214AA91460A9AB0
:1048F00000210A3A149242461792524618925A469A
:104900000991B3461F311E000F9B4944BA461994C2
:104910001A950024674698468946159D16901B9265
:104920000AE03032D2B24B4601341A55A8454AD07B
:10493000202C4AD006000D003A0000233000290048
:10494000FDF78CFED2B2092AEBD9149B9C46624437
:10495000D2B2E8E76123820600D54123DBB20A3BED
:104960000C93434614A91F228C4615935346624468
:10497000A046B2464C461797A9461700099D0D9EC2
:104980001490169308E03033DBB201343B55B54246
:104990000ED3202C0CD0050031002800FDF720FE9E
:1049A000CBB20929EFD90C9A94466344DBB2ECE709
:1049B000159B4D46A14644469846169B564614986C
:1049C0009A46179FD0E5B742B2D9179B57469846EB
:1049D000189B5E469A461B9B09949B461698199C09
:1049E0001A9D43460593534604930D9B06900393EB
:1049F00000230293099B05E70F9B984500D914E714
:104A000001330F932DE41023110099430D91692870
:104A100000D0BAE080231000DB0018401A4200D119
:104A200022E61DE60C9B1B68DA0F1100002B00D15B
:104A30008CE0DA179818504014AA914642461F237A
:104A4000149252464B44A046A94616970400654668
:104A5000B2461F000C91159201E0202D0FD02000CE
:104A60000A21FDF7BDFD01357E193031317020007E
:104A70000A21FDF7B5FD26000400092EEDD8149B90
:104A8000444698460C9BAC461900159B56464D462D
:104A90009A46169F0D9B02910693434605935346F3
:104AA00004930A23039363463CE6002800D02EE6D5
:104AB00002E60C9B1B689946002B03D110339843E8
:104AC000002938D16123820600D54123DBB20A3B9D
:104AD0000C9343461693534614A91F228C461793F2
:104AE0002B006244A0464D46B246189799461700DF
:104AF000149C0D9E159008E03033DBB201343B5519
:104B0000B5420ED3202C0CD0050031002800FDF753
:104B100067FDCBB20929EFD90C9A94466344DBB206
:104B2000ECE7169B149444469846179B56464D4610
:104B30009A461598189F43460593534604930D9B38
:104B40000690039300230293149BEBE50028A1D168
:104B500072E70C9B1B68D9175A184A40A6E58023B8
:104B60001000DB0018409C460F901A420FD0022024
:104B7000030013400F93104219D00023A1460F9356
:104B80004CE50C9B1B680993E4E40A0034E402231F
:104B9000180010400D90134200D03EE54346002B14
:104BA00000D042E6FFF771FB01330F937FE46346C9
:104BB0000D93F3E710B50C0084B00394012402A90F
:104BC00002900093034813006242FFF703FA04B017
:104BD00010BDC046A135001010B5094A0300146885
:104BE00084B0002C08D0012200910648524203A94B
:104BF000A047012004B010BD00F09AF90020F9E7A9
:104C00003C1300209135001000BEFDE710B5FFF702
:104C1000FBFFC04670B5FDF797FB074D074EB54249
:104C200009D20024013E761BB60808CD9847230020
:104C30000134B342F9D170BDD48D0010DC8D001069
:104C4000030010B5080011001B68984710BDC0464E
:104C5000F0B5C64600B5437D07000C001600002BDA
:104C600046D0002A17DD0B780A2B24D00023984663
:104C7000012E13D001252900635C01350A2B26D0B3
:104C8000B542F8D1464509DCA419013C23780D3B17
:104C90005A4253413B7580BCB846F0BD4346E018CC
:104CA000A419F11A013C3B68984723780D3B5A42FE
:104CB00053413B75EFE7037D002BD7D102210F480D
:104CC0003B689847012EDFD001239846D2E7631E48
:104CD0005B5C0D2BD4D0884504DA4346C91AE01832
:104CE0003B689847022105483B68A8469847C7E7B4
:104CF0000368110020009847CDE7C04620940010BB
:104D0000F0B5C6460B6806000C0000B5802B06D037
:104D10005A1C2260E418267180BCB846F0BD0F4BC7
:104D20001D68002D16D00B1D98460D4F02E02D6911
:104D3000002D0FD02B68002BF9D03B68002B01D041
:104D4000AB42F4D1280041462268FFF781FF2D696C
:104D5000002DEFD101220023DBE7C0461411002013
:104D600018130020F0B54546DE464E465746E0B5DE
:104D700083B091461C0080460D00FDF76BF80023C0
:104D8000304A12184B41002B02DA01222E4B5242BC
:104D90002E4908008A4603F0EFFF07006B1C03D181
:104DA000404603F081FF0500002C27D0284E294BF8
:104DB0001C68002C18D04B46002B21D1264B99465D
:104DC00002E02469002C0FD02368002BF9D04B4659
:104DD0001B68002B01D09C42F3D120002A004146E1
:104DE000B0472469002CEFD1002F26D1280003B052
:104DF000F0BCBB46B246A946A046F0BD174ED6E76A
:104E0000154B99460A239B4602E02469002CEBD0FF
:104E10002368002BF9D04B461B68002B01D0A3421E
:104E2000F3D12A0041462000B0476B465A46200085
:104E3000DA71D91D0122B047E7E7504603F06CFF55
:104E4000D4E7C04640420F00FFFFFF7F88060020E6
:104E5000514C00101411002018130020414C001078
:104E60000A4A1368002B05D10CE01A001B691032A6
:104E7000002B07D08342F8D1002902D118691060B5
:104E8000196170470029FCD01060FAE71411002066
:104E900010B500F0ABF9012010BDC046F0B5CE460C
:104EA000474680B583B06B460600DD1D2870FCF7D1
:104EB000D1FF0023194A12184B41002B02DA0122BC
:104EC000174B524217490800884603F055FF164B0E
:104ED00081461C68002C14D0144F02E02469002C79
:104EE0000FD02368002BF9D03B68002B01D09C42E7
:104EF000F4D1200001222900FFF7AAFE2469002C2A
:104F0000EFD14B46002B05D1300003B0C0BCB946F1
:104F1000B046F0BD404603F0FFFEF5E740420F000B
:104F2000FFFFFF7F880600201411002018130020C7
:104F300070B5040003F0B8FE012301000500012252
:104F40002000FFF70FFF084B1C68002C06D0636899
:104F5000002B05D098472469002CF8D1280070BD9B
:104F60002469002CF3D1F9E714110020F0B5CE46E6
:104F7000474680B5A3B004000D00FCF76BFF00238B
:104F8000274A12184B41002B02DA0122254B5242CC
:104F9000254E300003F0F0FE0023220001930700AD
:104FA0002B00224801A9FFF705FE214B80469946B8
:104FB0001C68019B002B1AD0002C2FD01D4D02E045
:104FC0002469002C0FD02368002BF9D02B68002B0C
:104FD00001D0A342F4D12000019A02A9FFF738FEC4
:104FE0002469002CEFD14B461C6800230193002C50
:104FF00006D06368002B0BD098472469002CF8D1A9
:10500000002F07D1404623B0C0BCB946B046F0BD22
:105010002469ECE7300003F07FFEF3E70194EFE74B
:1050200040420F00FFFFFF7F88060020014D001067
:1050300014110020181300200FB400B583B004A988
:1050400001C90191FFF792FF03B008BC04B01847F3
:10505000F0B5002915DD0E4B0D271A680D4B0E4CCF
:10506000D3185D426B41451820215B001E5F047818
:10507000A64207D093691942FCD101301460A842BE
:10508000F5D1F0BD93691942FCD11760F2E7C04633
:10509000801300200080FCBF78130020204B70B5E7
:1050A00004000D1E1E682ADD002010211D4B013C4E
:1050B0001A689369194214D1013093691942FCD1DD
:1050C000136823548542F4D1002E08D050239363F3
:1050D000516B183B0B4014498C4662441360280006
:1050E00070BD002E08D050239363516B183B0B40CA
:1050F0000D498C46624413600028F1D10CE0002E6B
:105100000AD05022074B1B689A63596B183A0A4021
:1051100005498C4663441A6003204042E0E7C046DC
:10512000DC1000208013002034100000064B10B566
:105130001B68002B06D00021044A12689163044AC0
:105140001068984710BDC046DC1000208013002076
:10515000E01000200822034B19688B691A42FCD129
:105160007047C04680130020F8B51A4F1A4B3A68B2
:105170000500D31858424341184E14331C003368BD
:10518000002D02D0002B0FD0F8BD002BFCD0002149
:1051900020009563FBF7EAFF20001149FCF71CF99A
:1051A000104B35601D60EFE70E4B200019600C4975
:1051B0003560FBF7EDFF01212000FBF7D7FF502200
:1051C0003B689A63596B183A0A4007498C46634416
:1051D0001A60D9E7801300200080FCBFDC1000209B
:1051E0002D510010E0100020341000000D4B10B5C0
:1051F0001B780D4B0D4C1B780D4B02211B780D4B72
:1052000000202360FBF7BCFE02210120FBF7B8FE63
:10521000E12120684902FCF76BFE01210648FFF7F7
:105220001FFE10BD0C950010089500108013002083
:1052300004950010004003405006002070B50C4E4D
:105240000D001C003060002A03DB02211000FBF778
:1052500097FE002C03DB02212000FBF791FE2900C2
:105260003068FCF745FE01210248FFF7F9FD70BDEB
:105270008013002050060020F0B54E468146474A74
:10528000DE464A44531E9A418023574645465B02F8
:105290009C46E0B5424B1204624485B01A60414B13
:1052A0000C0041491A6010000B689843FBD18046FE
:1052B0000620FCF79BFF4B465A6802231A400192D6
:1052C0004A460090802004320292384AE70D4A4450
:1052D0006602136093463B0032000225400007E05F
:1052E0000099914206D3023592197B41854201D043
:1052F000002BF5D0434680260393009B2F02AA463D
:1053000098467F1B760003E05346FF1A012E3FD0DC
:10531000390040463500013EFDF762F98442F3D280
:105320002B0055469A4650463302984668434B46F2
:1053300042461D611B6880265340FF2276011202FF
:1053400013404E44336080239B019C46029A019B8C
:105350006244136002215C464B465B6821604C4608
:10536000276807246740C8343C40346003240B405E
:1053700013600F4B4B441C60116001000098FDF757
:105380002FF905B0F0BCBB46B246A946A046F0BD19
:105390005546039B28009846C9E7C0460040FCBF1D
:1053A00000E0004000F0004008C000400430000071
:1053B00024200000F0B598235746DE464E46454669
:1053C000C94AE0B5D758973B1C008DB03C403B42E2
:1053D00000D1B3E0136D9B059B0F00D0E1E080226C
:1053E00009A8520001210280838003F0CDFCC02275
:1053F000BE4B92001A6549229246403A9146483285
:10540000934608320192403A0092083A9046B84AD0
:1054100041230792B74AB84E0692B84AB84D059252
:10542000B84A0492B84A0392B84A02927A0500D464
:10543000A5E08022AD4BB64892051A65437F09ACC2
:105440009B468378B0469A46C38A994600F03AFF55
:10545000082200212000FDF751FF5A460223A270C6
:105460005246637063714B462271200001210B93F9
:1054700003F08AFC069A2C009246059A079B9146F7
:10548000049A9346039A0192029A0092FA0600D473
:1054900078E0954B9D6D01232B4200D0EDE0012378
:1054A0009A46924B9B4E99465B460324C346029311
:1054B000B84637002E0003E002342037212C19D0E3
:1054C000002E00D1D4E05546631E9D40354200D0E9
:1054D000A8E05546A5403542EED04B4638009D65C4
:1054E00000F0FAFF002800D07FE0AE4302342037FE
:1054F000212CE5D1029B4746D8469B46002E00D082
:10550000EEE00825019A5B469246009A4446914691
:105510003D423AD17A0604D580211C00734A090520
:105520001165BB0600D5D4E0BC4200D0CCE00DB084
:10553000F0BCBB46B246A946A046F0BD4822924602
:10554000403A91464832934608320192403A0092DE
:10555000083A9046882282268025D2000792083297
:105560000692403A05924832049208320392403A39
:1055700040230292F600ED007A0500D559E7FA06BD
:1055800000D586E708253D42C4D080220226574B2D
:10559000D2021A65544BDB6C1E420BD153464C466B
:1055A000B8E700236A4601219384138509A803F014
:1055B000EBFB1CE7564809AC437FC5829B468378CA
:1055C000984600F07FFE082200212000FDF796FE9D
:1055D0005B46A370434666702371200001210B9542
:1055E0004C4603F0D1FB534694E77B7FBA78F98AA7
:1055F000380003930492059100F064FE0822002114
:1056000009A8FDF77BFE022308A843710599039BB7
:10561000049A837102720B9109A8012103F0B4FB73
:10562000AE4363E74B4638009D6500F055FF002808
:1056300001D1AE434DE77B7FBA78F98A38000393F6
:105640000492059100F03EFE0822002109A8FDF712
:1056500055FE022308A843710599039B049A8371A0
:1056600002720B9109A8012103F08EFBAE4330E7D3
:10567000029B4746D8469B4643E7254C626820007C
:1056800012681A4A936500F027FF002802D101230F
:105690009D4304E7637FE68A9946A378200009AC1E
:1056A0009A4600F00FFE082200212000FDF726FE9A
:1056B000022363704B46A3705346012123712000DF
:1056C0000B9603F061FBE2E7210013487940FBF7FA
:1056D00091FC8022054B120610481A65FBF78AFCE4
:1056E00031000F48FBF786FC0000115000301150CC
:1056F00041040000490400001104000009040000F6
:1057000001040000510400005904000019040000C5
:105710001811002038110020509100103C91001009
:105720002491001070B500F0ADFD0C230D4C0E4D12
:10573000A36729000520FBF74FFE2900FF22052063
:10574000FBF750FD8022002192000848FDF7D6FDAE
:1057500003232364064B074AE36490230120E250AD
:1057600070BDC04600001150B55300101811002044
:10577000008600207B0400007047C0467047C0468A
:10578000044B186DC0239B001840431E9841C0B2C3
:105790007047C04600001150064B10B5186D8005CB
:1057A000800F012802D0022801D1002010BD02483C
:1057B000FBF720FC000011506491001070B50D1E25
:1057C00050D03D23DB4CE35C8B4200D10EE25D23E5
:1057D000E35CAB4200D1EDE17D23E35CAB4200D161
:1057E000CCE19D23E35CAB4200D1A9E1BD23E35CA6
:1057F000AB4200D17FE1DD23E35CAB4200D15CE151
:10580000FD23E35CAB4200D139E11E23FF33E35CAF
:10581000AB4200D112E13E23FF33E35CAB4200D147
:10582000EAE05E23FF33E35CAB4200D1C2E07E23BB
:10583000FF33E35CAB4200D19AE09E23FF33E35C8D
:10584000AB4200D172E0BE23FF33E35CAB424CD0ED
:10585000DE23FF33E35CAB4226D0FE23FF33E35C61
:10586000AB4200D070BDF0235B00E25C002AF9D0AF
:10587000FF2201215200A25C501C8140AE489200E0
:105880004165AE4920008C46002162445160E154DC
:105890000433E358E1301960F4235B00E358FF3030
:1058A000196000F00FFDDDE7E0235B00E25C002AF9
:1058B000D3D0EF2201215200A25C501C81409E48AF
:1058C000920041659D4920008C4600216244516050
:1058D000E1540433E358C1301960E4235B00E3581A
:1058E000FF30196000F0EEFCB7E7D0235B00E25C0C
:1058F000002AADD0DF2201215200A25C501C814061
:105900008D48920041658D4920008C4600216244FB
:105910005160E1540433E358A1301960D4235B0093
:10592000E358FF30196000F0CDFC91E7C0235B0025
:10593000E25C002A00D186E7CF2201215200A25C5E
:10594000501C81407C48920041657C4920008C4677
:10595000002162445160E1540433E35881301960FE
:10596000C4235B00E358FF30196000F0ABFC6AE72A
:10597000B0235B00E25C002A00D15EE7BF22012178
:105980005200A25C501C81406B48920041656B49FB
:1059900020008C46002162445160E1540433E358F6
:1059A00061301960B4235B00E358FF30196000F0E8
:1059B00089FC42E7A0235B00E25C002A00D136E7C5
:1059C000AF2201215200A25C501C81405A48920033
:1059D00041655A4920008C46002162445160E154DF
:1059E0000433E35841301960A4235B00E358FF30CF
:1059F000196000F067FC1AE790235B00E25C002A64
:105A000000D10EE79F2201215200A25C501C814070
:105A1000494892004165494920008C460021624472
:105A20005160E1540433E3582130196094235B0042
:105A3000E358FF30196000F045FCF2E680235B007C
:105A4000E25C002A00D1E6E68F2201215200A25C2E
:105A5000501C81403848920041653849601C8C4692
:105A6000002162445160E1540433E358FF3019606F
:105A700084235B00E358196000F024FCCBE6E023AC
:105A8000E25C002A00D1C0E6FE220121A25C501C8B
:105A90008140294892004165284920008C46002118
:105AA00062445160E1540433E358E0301960E82364
:105AB000E358196000F006FCA7E6C023E25C002A68
:105AC00000D19DE6DE220121A25C501C81401A48D3
:105AD00092004165194920008C46002162445160C2
